{
  "_format": "hh3-artifact-1",
  "contractName": "TrueStamp",
  "sourceName": "contracts/TrueStamp.sol",
  "abi": [
    {
      "inputs": [],
      "stateMutability": "nonpayable",
      "type": "constructor"
    },
    {
      "inputs": [],
      "name": "AccessControlBadConfirmation",
      "type": "error"
    },
    {
      "inputs": [
        {
          "internalType": "address",
          "name": "account",
          "type": "address"
        },
        {
          "internalType": "bytes32",
          "name": "neededRole",
          "type": "bytes32"
        }
      ],
      "name": "AccessControlUnauthorizedAccount",
      "type": "error"
    },
    {
      "anonymous": false,
      "inputs": [
        {
          "indexed": true,
          "internalType": "bytes32",
          "name": "docId",
          "type": "bytes32"
        },
        {
          "indexed": true,
          "internalType": "address",
          "name": "verifier",
          "type": "address"
        }
      ],
      "name": "AccessGranted",
      "type": "event"
    },
    {
      "anonymous": false,
      "inputs": [
        {
          "indexed": true,
          "internalType": "bytes32",
          "name": "docId",
          "type": "bytes32"
        },
        {
          "indexed": true,
          "internalType": "address",
          "name": "verifier",
          "type": "address"
        }
      ],
      "name": "AccessRevoked",
      "type": "event"
    },
    {
      "anonymous": false,
      "inputs": [
        {
          "indexed": true,
          "internalType": "bytes32",
          "name": "docId",
          "type": "bytes32"
        }
      ],
      "name": "DocumentRevoked",
      "type": "event"
    },
    {
      "anonymous": false,
      "inputs": [
        {
          "indexed": true,
          "internalType": "bytes32",
          "name": "docId",
          "type": "bytes32"
        },
        {
          "indexed": true,
          "internalType": "address",
          "name": "owner",
          "type": "address"
        },
        {
          "indexed": true,
          "internalType": "address",
          "name": "issuer",
          "type": "address"
        },
        {
          "indexed": false,
          "internalType": "string",
          "name": "cid",
          "type": "string"
        },
        {
          "indexed": false,
          "internalType": "string",
          "name": "documentHash",
          "type": "string"
        }
      ],
      "name": "DocumentUploaded",
      "type": "event"
    },
    {
      "anonymous": false,
      "inputs": [
        {
          "indexed": true,
          "internalType": "address",
          "name": "owner",
          "type": "address"
        },
        {
          "indexed": true,
          "internalType": "address",
          "name": "nominee",
          "type": "address"
        }
      ],
      "name": "NomineeUpdated",
      "type": "event"
    },
    {
      "anonymous": false,
      "inputs": [
        {
          "indexed": true,
          "internalType": "bytes32",
          "name": "role",
          "type": "bytes32"
        },
        {
          "indexed": true,
          "internalType": "bytes32",
          "name": "previousAdminRole",
          "type": "bytes32"
        },
        {
          "indexed": true,
          "internalType": "bytes32",
          "name": "newAdminRole",
          "type": "bytes32"
        }
      ],
      "name": "RoleAdminChanged",
      "type": "event"
    },
    {
      "anonymous": false,
      "inputs": [
        {
          "indexed": true,
          "internalType": "bytes32",
          "name": "role",
          "type": "bytes32"
        },
        {
          "indexed": true,
          "internalType": "address",
          "name": "account",
          "type": "address"
        },
        {
          "indexed": true,
          "internalType": "address",
          "name": "sender",
          "type": "address"
        }
      ],
      "name": "RoleGranted",
      "type": "event"
    },
    {
      "anonymous": false,
      "inputs": [
        {
          "indexed": true,
          "internalType": "bytes32",
          "name": "role",
          "type": "bytes32"
        },
        {
          "indexed": true,
          "internalType": "address",
          "name": "account",
          "type": "address"
        },
        {
          "indexed": true,
          "internalType": "address",
          "name": "sender",
          "type": "address"
        }
      ],
      "name": "RoleRevoked",
      "type": "event"
    },
    {
      "inputs": [],
      "name": "DEFAULT_ADMIN_ROLE",
      "outputs": [
        {
          "internalType": "bytes32",
          "name": "",
          "type": "bytes32"
        }
      ],
      "stateMutability": "view",
      "type": "function"
    },
    {
      "inputs": [],
      "name": "INSTITUTION_ROLE",
      "outputs": [
        {
          "internalType": "bytes32",
          "name": "",
          "type": "bytes32"
        }
      ],
      "stateMutability": "view",
      "type": "function"
    },
    {
      "inputs": [],
      "name": "VERIFIER_ROLE",
      "outputs": [
        {
          "internalType": "bytes32",
          "name": "",
          "type": "bytes32"
        }
      ],
      "stateMutability": "view",
      "type": "function"
    },
    {
      "inputs": [
        {
          "internalType": "bytes32",
          "name": "",
          "type": "bytes32"
        },
        {
          "internalType": "address",
          "name": "",
          "type": "address"
        }
      ],
      "name": "documentAccess",
      "outputs": [
        {
          "internalType": "bool",
          "name": "",
          "type": "bool"
        }
      ],
      "stateMutability": "view",
      "type": "function"
    },
    {
      "inputs": [
        {
          "internalType": "bytes32",
          "name": "",
          "type": "bytes32"
        }
      ],
      "name": "documents",
      "outputs": [
        {
          "internalType": "address",
          "name": "owner",
          "type": "address"
        },
        {
          "internalType": "address",
          "name": "issuer",
          "type": "address"
        },
        {
          "internalType": "string",
          "name": "cid",
          "type": "string"
        },
        {
          "internalType": "string",
          "name": "metadata",
          "type": "string"
        },
        {
          "internalType": "string",
          "name": "documentHash",
          "type": "string"
        },
        {
          "internalType": "uint256",
          "name": "timestamp",
          "type": "uint256"
        },
        {
          "internalType": "bool",
          "name": "isRevoked",
          "type": "bool"
        }
      ],
      "stateMutability": "view",
      "type": "function"
    },
    {
      "inputs": [
        {
          "internalType": "address",
          "name": "owner",
          "type": "address"
        }
      ],
      "name": "getNominee",
      "outputs": [
        {
          "internalType": "address",
          "name": "",
          "type": "address"
        }
      ],
      "stateMutability": "view",
      "type": "function"
    },
    {
      "inputs": [
        {
          "internalType": "bytes32",
          "name": "role",
          "type": "bytes32"
        }
      ],
      "name": "getRoleAdmin",
      "outputs": [
        {
          "internalType": "bytes32",
          "name": "",
          "type": "bytes32"
        }
      ],
      "stateMutability": "view",
      "type": "function"
    },
    {
      "inputs": [
        {
          "internalType": "address",
          "name": "user",
          "type": "address"
        }
      ],
      "name": "getUserDocuments",
      "outputs": [
        {
          "components": [
            {
              "internalType": "address",
              "name": "owner",
              "type": "address"
            },
            {
              "internalType": "address",
              "name": "issuer",
              "type": "address"
            },
            {
              "internalType": "string",
              "name": "cid",
              "type": "string"
            },
            {
              "internalType": "string",
              "name": "metadata",
              "type": "string"
            },
            {
              "internalType": "string",
              "name": "documentHash",
              "type": "string"
            },
            {
              "internalType": "uint256",
              "name": "timestamp",
              "type": "uint256"
            },
            {
              "internalType": "bool",
              "name": "isRevoked",
              "type": "bool"
            }
          ],
          "internalType": "struct TrueStamp.Document[]",
          "name": "",
          "type": "tuple[]"
        }
      ],
      "stateMutability": "view",
      "type": "function"
    },
    {
      "inputs": [
        {
          "internalType": "bytes32",
          "name": "docId",
          "type": "bytes32"
        },
        {
          "internalType": "address",
          "name": "verifier",
          "type": "address"
        }
      ],
      "name": "grantAccess",
      "outputs": [],
      "stateMutability": "nonpayable",
      "type": "function"
    },
    {
      "inputs": [
        {
          "internalType": "bytes32",
          "name": "role",
          "type": "bytes32"
        },
        {
          "internalType": "address",
          "name": "account",
          "type": "address"
        }
      ],
      "name": "grantRole",
      "outputs": [],
      "stateMutability": "nonpayable",
      "type": "function"
    },
    {
      "inputs": [
        {
          "internalType": "bytes32",
          "name": "docId",
          "type": "bytes32"
        },
        {
          "internalType": "address",
          "name": "verifier",
          "type": "address"
        }
      ],
      "name": "hasAccess",
      "outputs": [
        {
          "internalType": "bool",
          "name": "",
          "type": "bool"
        }
      ],
      "stateMutability": "view",
      "type": "function"
    },
    {
      "inputs": [
        {
          "internalType": "bytes32",
          "name": "role",
          "type": "bytes32"
        },
        {
          "internalType": "address",
          "name": "account",
          "type": "address"
        }
      ],
      "name": "hasRole",
      "outputs": [
        {
          "internalType": "bool",
          "name": "",
          "type": "bool"
        }
      ],
      "stateMutability": "view",
      "type": "function"
    },
    {
      "inputs": [
        {
          "internalType": "address",
          "name": "recipient",
          "type": "address"
        },
        {
          "internalType": "string",
          "name": "cid",
          "type": "string"
        },
        {
          "internalType": "string",
          "name": "metadata",
          "type": "string"
        },
        {
          "internalType": "string",
          "name": "documentHash",
          "type": "string"
        }
      ],
      "name": "issueDocument",
      "outputs": [
        {
          "internalType": "bytes32",
          "name": "",
          "type": "bytes32"
        }
      ],
      "stateMutability": "nonpayable",
      "type": "function"
    },
    {
      "inputs": [
        {
          "internalType": "address",
          "name": "",
          "type": "address"
        }
      ],
      "name": "nominees",
      "outputs": [
        {
          "internalType": "address",
          "name": "",
          "type": "address"
        }
      ],
      "stateMutability": "view",
      "type": "function"
    },
    {
      "inputs": [
        {
          "internalType": "address",
          "name": "oldOwner",
          "type": "address"
        }
      ],
      "name": "recoverAccount",
      "outputs": [],
      "stateMutability": "nonpayable",
      "type": "function"
    },
    {
      "inputs": [
        {
          "internalType": "bytes32",
          "name": "role",
          "type": "bytes32"
        },
        {
          "internalType": "address",
          "name": "callerConfirmation",
          "type": "address"
        }
      ],
      "name": "renounceRole",
      "outputs": [],
      "stateMutability": "nonpayable",
      "type": "function"
    },
    {
      "inputs": [
        {
          "internalType": "bytes32",
          "name": "docId",
          "type": "bytes32"
        },
        {
          "internalType": "address",
          "name": "verifier",
          "type": "address"
        }
      ],
      "name": "revokeAccess",
      "outputs": [],
      "stateMutability": "nonpayable",
      "type": "function"
    },
    {
      "inputs": [
        {
          "internalType": "bytes32",
          "name": "docId",
          "type": "bytes32"
        }
      ],
      "name": "revokeDocument",
      "outputs": [],
      "stateMutability": "nonpayable",
      "type": "function"
    },
    {
      "inputs": [
        {
          "internalType": "bytes32",
          "name": "role",
          "type": "bytes32"
        },
        {
          "internalType": "address",
          "name": "account",
          "type": "address"
        }
      ],
      "name": "revokeRole",
      "outputs": [],
      "stateMutability": "nonpayable",
      "type": "function"
    },
    {
      "inputs": [
        {
          "internalType": "address",
          "name": "nominee",
          "type": "address"
        }
      ],
      "name": "setNominee",
      "outputs": [],
      "stateMutability": "nonpayable",
      "type": "function"
    },
    {
      "inputs": [
        {
          "internalType": "bytes4",
          "name": "interfaceId",
          "type": "bytes4"
        }
      ],
      "name": "supportsInterface",
      "outputs": [
        {
          "internalType": "bool",
          "name": "",
          "type": "bool"
        }
      ],
      "stateMutability": "view",
      "type": "function"
    },
    {
      "inputs": [
        {
          "internalType": "address",
          "name": "",
          "type": "address"
        },
        {
          "internalType": "uint256",
          "name": "",
          "type": "uint256"
        }
      ],
      "name": "userDocuments",
      "outputs": [
        {
          "internalType": "bytes32",
          "name": "",
          "type": "bytes32"
        }
      ],
      "stateMutability": "view",
      "type": "function"
    },
    {
      "inputs": [
        {
          "internalType": "bytes32",
          "name": "docId",
          "type": "bytes32"
        }
      ],
      "name": "verifyDocument",
      "outputs": [
        {
          "internalType": "address",
          "name": "owner",
          "type": "address"
        },
        {
          "internalType": "address",
          "name": "issuer",
          "type": "address"
        },
        {
          "internalType": "string",
          "name": "cid",
          "type": "string"
        },
        {
          "internalType": "string",
          "name": "metadata",
          "type": "string"
        },
        {
          "internalType": "string",
          "name": "documentHash",
          "type": "string"
        },
        {
          "internalType": "uint256",
          "name": "timestamp",
          "type": "uint256"
        },
        {
          "internalType": "bool",
          "name": "isRevoked",
          "type": "bool"
        },
        {
          "internalType": "bool",
          "name": "accessGranted",
          "type": "bool"
        }
      ],
      "stateMutability": "view",
      "type": "function"
    }
  ],
  "bytecode": "0x608060405234801562000010575f80fd5b50620000255f801b336200002c60201b60201c565b5062000191565b5f6200003f83836200012760201b60201c565b6200011d5760015f808581526020019081526020015f205f015f8473ffffffffffffffffffffffffffffffffffffffff1673ffffffffffffffffffffffffffffffffffffffff1681526020019081526020015f205f6101000a81548160ff021916908315150217905550620000b96200018a60201b60201c565b73ffffffffffffffffffffffffffffffffffffffff168273ffffffffffffffffffffffffffffffffffffffff16847f2f8788117e7eff1d82e926ec794901d17c78024a50270940304540a733656f0d60405160405180910390a46001905062000121565b5f90505b92915050565b5f805f8481526020019081526020015f205f015f8373ffffffffffffffffffffffffffffffffffffffff1673ffffffffffffffffffffffffffffffffffffffff1681526020019081526020015f205f9054906101000a900460ff16905092915050565b5f33905090565b612edd806200019f5f395ff3fe608060405234801561000f575f80fd5b506004361061014b575f3560e01c806383177db3116100c1578063bc530cd51161007a578063bc530cd5146103e9578063d547741f14610405578063d9831b9214610421578063e7705db614610451578063fa55ca2d1461046f578063fe35089f1461049f5761014b565b806383177db3146103035780638d53b2081461033357806390a4b1621461034f57806391d148541461037f578063952be80d146103af578063a217fddf146103cb5761014b565b80632b2805db116101135780632b2805db1461022d5780632f2ff15d1461026357806336568abe1461027f57806340554c3a1461029b578063577a1b92146102b757806368ce403c146102e75761014b565b80630148f0901461014f57806301ffc9a71461017f57806305ef09b9146101af5780631b929c21146101df578063248a9ca3146101fd575b5f80fd5b610169600480360381019061016491906121c6565b6104d6565b6040516101769190612296565b60405180910390f35b61019960048036038101906101949190612304565b610773565b6040516101a69190612349565b60405180910390f35b6101c960048036038101906101c49190612362565b6107ec565b6040516101d6919061239c565b60405180910390f35b6101e7610851565b6040516101f49190612296565b60405180910390f35b610217600480360381019061021291906123df565b610875565b6040516102249190612296565b60405180910390f35b610247600480360381019061024291906123df565b610891565b60405161025a979695949392919061249c565b60405180910390f35b61027d6004803603810190610278919061251e565b610aab565b005b6102996004803603810190610294919061251e565b610acd565b005b6102b560048036038101906102b0919061251e565b610b48565b005b6102d160048036038101906102cc9190612586565b610c94565b6040516102de9190612296565b60405180910390f35b61030160048036038101906102fc9190612362565b610cbf565b005b61031d6004803603810190610318919061251e565b610d97565b60405161032a9190612349565b60405180910390f35b61034d6004803603810190610348919061251e565b610eca565b005b61036960048036038101906103649190612362565b611015565b604051610376919061279b565b60405180910390f35b6103996004803603810190610394919061251e565b6113f6565b6040516103a69190612349565b60405180910390f35b6103c960048036038101906103c491906123df565b611459565b005b6103d36115b6565b6040516103e09190612296565b60405180910390f35b61040360048036038101906103fe9190612362565b6115bc565b005b61041f600480360381019061041a919061251e565b6118df565b005b61043b6004803603810190610436919061251e565b611901565b6040516104489190612349565b60405180910390f35b61045961192b565b6040516104669190612296565b60405180910390f35b61048960048036038101906104849190612362565b61194f565b604051610496919061239c565b60405180910390f35b6104b960048036038101906104b491906123df565b61197f565b6040516104cd9897969594939291906127bb565b60405180910390f35b5f7f01f18e249044142f95a61b39bad5f99f3c70699c83bb85a1ad87fe9e68bd85d161050181611cd8565b5f863387864260405160200161051b9594939291906128eb565b6040516020818303038152906040528051906020012090506040518060e001604052808873ffffffffffffffffffffffffffffffffffffffff1681526020013373ffffffffffffffffffffffffffffffffffffffff1681526020018781526020018681526020018581526020014281526020015f151581525060015f8381526020019081526020015f205f820151815f015f6101000a81548173ffffffffffffffffffffffffffffffffffffffff021916908373ffffffffffffffffffffffffffffffffffffffff1602179055506020820151816001015f6101000a81548173ffffffffffffffffffffffffffffffffffffffff021916908373ffffffffffffffffffffffffffffffffffffffff16021790555060408201518160020190816106449190612b3b565b50606082015181600301908161065a9190612b3b565b5060808201518160040190816106709190612b3b565b5060a0820151816005015560c0820151816006015f6101000a81548160ff02191690831515021790555090505060025f8873ffffffffffffffffffffffffffffffffffffffff1673ffffffffffffffffffffffffffffffffffffffff1681526020019081526020015f2081908060018154018082558091505060019003905f5260205f20015f90919091909150553373ffffffffffffffffffffffffffffffffffffffff168773ffffffffffffffffffffffffffffffffffffffff16827f660804971bdc97a586c066b7fecfd89ea3e866095a2ca8c731deaa2d881d1455898860405161075e929190612c0a565b60405180910390a48092505050949350505050565b5f7f7965db0b000000000000000000000000000000000000000000000000000000007bffffffffffffffffffffffffffffffffffffffffffffffffffffffff1916827bffffffffffffffffffffffffffffffffffffffffffffffffffffffff191614806107e557506107e482611cec565b5b9050919050565b5f60035f8373ffffffffffffffffffffffffffffffffffffffff1673ffffffffffffffffffffffffffffffffffffffff1681526020019081526020015f205f9054906101000a900473ffffffffffffffffffffffffffffffffffffffff169050919050565b7f01f18e249044142f95a61b39bad5f99f3c70699c83bb85a1ad87fe9e68bd85d181565b5f805f8381526020019081526020015f20600101549050919050565b6001602052805f5260405f205f91509050805f015f9054906101000a900473ffffffffffffffffffffffffffffffffffffffff1690806001015f9054906101000a900473ffffffffffffffffffffffffffffffffffffffff16908060020180546108fa9061296e565b80601f01602080910402602001604051908101604052809291908181526020018280546109269061296e565b80156109715780601f1061094857610100808354040283529160200191610971565b820191905f5260205f20905b81548152906001019060200180831161095457829003601f168201915b5050505050908060030180546109869061296e565b80601f01602080910402602001604051908101604052809291908181526020018280546109b29061296e565b80156109fd5780601f106109d4576101008083540402835291602001916109fd565b820191905f5260205f20905b8154815290600101906020018083116109e057829003601f168201915b505050505090806004018054610a129061296e565b80601f0160208091040260200160405190810160405280929190818152602001828054610a3e9061296e565b8015610a895780601f10610a6057610100808354040283529160200191610a89565b820191905f5260205f20905b815481529060010190602001808311610a6c57829003601f168201915b505050505090806005015490806006015f9054906101000a900460ff16905087565b610ab482610875565b610abd81611cd8565b610ac78383611d55565b50505050565b610ad5611e3e565b73ffffffffffffffffffffffffffffffffffffffff168173ffffffffffffffffffffffffffffffffffffffff1614610b39576040517f6697b23200000000000000000000000000000000000000000000000000000000815260040160405180910390fd5b610b438282611e45565b505050565b3373ffffffffffffffffffffffffffffffffffffffff1660015f8481526020019081526020015f205f015f9054906101000a900473ffffffffffffffffffffffffffffffffffffffff1673ffffffffffffffffffffffffffffffffffffffff1614610be8576040517f08c379a0000000000000000000000000000000000000000000000000000000008152600401610bdf90612c89565b60405180910390fd5b600160045f8481526020019081526020015f205f8373ffffffffffffffffffffffffffffffffffffffff1673ffffffffffffffffffffffffffffffffffffffff1681526020019081526020015f205f6101000a81548160ff0219169083151502179055508073ffffffffffffffffffffffffffffffffffffffff16827ff20afd7b032307b01752ee91e3f6a4b83a5b4ab631f9ab279322fd45634382c060405160405180910390a35050565b6002602052815f5260405f208181548110610cad575f80fd5b905f5260205f20015f91509150505481565b8060035f3373ffffffffffffffffffffffffffffffffffffffff1673ffffffffffffffffffffffffffffffffffffffff1681526020019081526020015f205f6101000a81548173ffffffffffffffffffffffffffffffffffffffff021916908373ffffffffffffffffffffffffffffffffffffffff1602179055508073ffffffffffffffffffffffffffffffffffffffff163373ffffffffffffffffffffffffffffffffffffffff167fccbcc213d42ebb6afea7424c6f9eea269c96b8d82de0e3193958a2237bfafa4760405160405180910390a350565b5f60045f8481526020019081526020015f205f8373ffffffffffffffffffffffffffffffffffffffff1673ffffffffffffffffffffffffffffffffffffffff1681526020019081526020015f205f9054906101000a900460ff1680610e5957508173ffffffffffffffffffffffffffffffffffffffff1660015f8581526020019081526020015f205f015f9054906101000a900473ffffffffffffffffffffffffffffffffffffffff1673ffffffffffffffffffffffffffffffffffffffff16145b80610ec257508173ffffffffffffffffffffffffffffffffffffffff1660015f8581526020019081526020015f206001015f9054906101000a900473ffffffffffffffffffffffffffffffffffffffff1673ffffffffffffffffffffffffffffffffffffffff16145b905092915050565b3373ffffffffffffffffffffffffffffffffffffffff1660015f8481526020019081526020015f205f015f9054906101000a900473ffffffffffffffffffffffffffffffffffffffff1673ffffffffffffffffffffffffffffffffffffffff1614610f6a576040517f08c379a0000000000000000000000000000000000000000000000000000000008152600401610f6190612c89565b60405180910390fd5b5f60045f8481526020019081526020015f205f8373ffffffffffffffffffffffffffffffffffffffff1673ffffffffffffffffffffffffffffffffffffffff1681526020019081526020015f205f6101000a81548160ff0219169083151502179055508073ffffffffffffffffffffffffffffffffffffffff16827fe7906b77ea165c70ad8268ce5b59b778a198edf9c1ae4118378eefdc76fce5f460405160405180910390a35050565b60605f60025f8473ffffffffffffffffffffffffffffffffffffffff1673ffffffffffffffffffffffffffffffffffffffff1681526020019081526020015f2080548060200260200160405190810160405280929190818152602001828054801561109d57602002820191905f5260205f20905b815481526020019060010190808311611089575b505050505090505f815167ffffffffffffffff8111156110c0576110bf6120a2565b5b6040519080825280602002602001820160405280156110f957816020015b6110e6611f7f565b8152602001906001900390816110de5790505b5090505f5b82518110156113eb5760015f84838151811061111d5761111c612ca7565b5b602002602001015181526020019081526020015f206040518060e00160405290815f82015f9054906101000a900473ffffffffffffffffffffffffffffffffffffffff1673ffffffffffffffffffffffffffffffffffffffff1673ffffffffffffffffffffffffffffffffffffffff168152602001600182015f9054906101000a900473ffffffffffffffffffffffffffffffffffffffff1673ffffffffffffffffffffffffffffffffffffffff1673ffffffffffffffffffffffffffffffffffffffff1681526020016002820180546111f69061296e565b80601f01602080910402602001604051908101604052809291908181526020018280546112229061296e565b801561126d5780601f106112445761010080835404028352916020019161126d565b820191905f5260205f20905b81548152906001019060200180831161125057829003601f168201915b505050505081526020016003820180546112869061296e565b80601f01602080910402602001604051908101604052809291908181526020018280546112b29061296e565b80156112fd5780601f106112d4576101008083540402835291602001916112fd565b820191905f5260205f20905b8154815290600101906020018083116112e057829003601f168201915b505050505081526020016004820180546113169061296e565b80601f01602080910402602001604051908101604052809291908181526020018280546113429061296e565b801561138d5780601f106113645761010080835404028352916020019161138d565b820191905f5260205f20905b81548152906001019060200180831161137057829003601f168201915b5050505050815260200160058201548152602001600682015f9054906101000a900460ff1615151515815250508282815181106113cd576113cc612ca7565b5b602002602001018190525080806113e390612d01565b9150506110fe565b508092505050919050565b5f805f8481526020019081526020015f205f015f8373ffffffffffffffffffffffffffffffffffffffff1673ffffffffffffffffffffffffffffffffffffffff1681526020019081526020015f205f9054906101000a900460ff16905092915050565b3373ffffffffffffffffffffffffffffffffffffffff1660015f8381526020019081526020015f206001015f9054906101000a900473ffffffffffffffffffffffffffffffffffffffff1673ffffffffffffffffffffffffffffffffffffffff16146114fa576040517f08c379a00000000000000000000000000000000000000000000000000000000081526004016114f190612d92565b60405180910390fd5b60015f8281526020019081526020015f206006015f9054906101000a900460ff161561155b576040517f08c379a000000000000000000000000000000000000000000000000000000000815260040161155290612dfa565b60405180910390fd5b6001805f8381526020019081526020015f206006015f6101000a81548160ff021916908315150217905550807f7283b5ab9758f7fba773279e4fd50ea7b136bd1d8371dcae9c5ce529c55343d760405160405180910390a250565b5f801b81565b3373ffffffffffffffffffffffffffffffffffffffff1660035f8373ffffffffffffffffffffffffffffffffffffffff1673ffffffffffffffffffffffffffffffffffffffff1681526020019081526020015f205f9054906101000a900473ffffffffffffffffffffffffffffffffffffffff1673ffffffffffffffffffffffffffffffffffffffff1614611686576040517f08c379a000000000000000000000000000000000000000000000000000000000815260040161167d90612e62565b60405180910390fd5b5f60025f8373ffffffffffffffffffffffffffffffffffffffff1673ffffffffffffffffffffffffffffffffffffffff1681526020019081526020015f2080548060200260200160405190810160405280929190818152602001828054801561170c57602002820191905f5260205f20905b8154815260200190600101908083116116f8575b505050505090505f5b8151811015611817573360015f84848151811061173557611734612ca7565b5b602002602001015181526020019081526020015f205f015f6101000a81548173ffffffffffffffffffffffffffffffffffffffff021916908373ffffffffffffffffffffffffffffffffffffffff16021790555060025f3373ffffffffffffffffffffffffffffffffffffffff1673ffffffffffffffffffffffffffffffffffffffff1681526020019081526020015f208282815181106117d9576117d8612ca7565b5b6020026020010151908060018154018082558091505060019003905f5260205f20015f9091909190915055808061180f90612d01565b915050611715565b5060025f8373ffffffffffffffffffffffffffffffffffffffff1673ffffffffffffffffffffffffffffffffffffffff1681526020019081526020015f205f6118609190611fe6565b5f60035f8473ffffffffffffffffffffffffffffffffffffffff1673ffffffffffffffffffffffffffffffffffffffff1681526020019081526020015f205f6101000a81548173ffffffffffffffffffffffffffffffffffffffff021916908373ffffffffffffffffffffffffffffffffffffffff1602179055505050565b6118e882610875565b6118f181611cd8565b6118fb8383611e45565b50505050565b6004602052815f5260405f20602052805f5260405f205f915091509054906101000a900460ff1681565b7f0ce23c3e399818cfee81a7ab0880f714e53d7672b08df0fa62f2843416e1ea0981565b6003602052805f5260405f205f915054906101000a900473ffffffffffffffffffffffffffffffffffffffff1681565b5f8060608060605f805f8060015f8b81526020019081526020015f206040518060e00160405290815f82015f9054906101000a900473ffffffffffffffffffffffffffffffffffffffff1673ffffffffffffffffffffffffffffffffffffffff1673ffffffffffffffffffffffffffffffffffffffff168152602001600182015f9054906101000a900473ffffffffffffffffffffffffffffffffffffffff1673ffffffffffffffffffffffffffffffffffffffff1673ffffffffffffffffffffffffffffffffffffffff168152602001600282018054611a5f9061296e565b80601f0160208091040260200160405190810160405280929190818152602001828054611a8b9061296e565b8015611ad65780601f10611aad57610100808354040283529160200191611ad6565b820191905f5260205f20905b815481529060010190602001808311611ab957829003601f168201915b50505050508152602001600382018054611aef9061296e565b80601f0160208091040260200160405190810160405280929190818152602001828054611b1b9061296e565b8015611b665780601f10611b3d57610100808354040283529160200191611b66565b820191905f5260205f20905b815481529060010190602001808311611b4957829003601f168201915b50505050508152602001600482018054611b7f9061296e565b80601f0160208091040260200160405190810160405280929190818152602001828054611bab9061296e565b8015611bf65780601f10611bcd57610100808354040283529160200191611bf6565b820191905f5260205f20905b815481529060010190602001808311611bd957829003601f168201915b5050505050815260200160058201548152602001600682015f9054906101000a900460ff16151515158152505090505f611c308b33610d97565b90508015611c7357815f015182602001518360400151846060015185608001518660a001518760c001516001995099509950995099509950995099505050611ccd565b5f82602001518360a001518460c001515f60405180602001604052805f81525092919060405180602001604052805f81525092919060405180602001604052805f8152509291909950995099509950995099509950995050505b919395975091939597565b611ce981611ce4611e3e565b611f2e565b50565b5f7f01ffc9a7000000000000000000000000000000000000000000000000000000007bffffffffffffffffffffffffffffffffffffffffffffffffffffffff1916827bffffffffffffffffffffffffffffffffffffffffffffffffffffffff1916149050919050565b5f611d6083836113f6565b611e345760015f808581526020019081526020015f205f015f8473ffffffffffffffffffffffffffffffffffffffff1673ffffffffffffffffffffffffffffffffffffffff1681526020019081526020015f205f6101000a81548160ff021916908315150217905550611dd1611e3e565b73ffffffffffffffffffffffffffffffffffffffff168273ffffffffffffffffffffffffffffffffffffffff16847f2f8788117e7eff1d82e926ec794901d17c78024a50270940304540a733656f0d60405160405180910390a460019050611e38565b5f90505b92915050565b5f33905090565b5f611e5083836113f6565b15611f24575f805f8581526020019081526020015f205f015f8473ffffffffffffffffffffffffffffffffffffffff1673ffffffffffffffffffffffffffffffffffffffff1681526020019081526020015f205f6101000a81548160ff021916908315150217905550611ec1611e3e565b73ffffffffffffffffffffffffffffffffffffffff168273ffffffffffffffffffffffffffffffffffffffff16847ff6391f5c32d9c69d2a47ea670b442974b53935d1edc7fd64eb21e047a839171b60405160405180910390a460019050611f28565b5f90505b92915050565b611f3882826113f6565b611f7b5780826040517fe2517d3f000000000000000000000000000000000000000000000000000000008152600401611f72929190612e80565b60405180910390fd5b5050565b6040518060e001604052805f73ffffffffffffffffffffffffffffffffffffffff1681526020015f73ffffffffffffffffffffffffffffffffffffffff1681526020016060815260200160608152602001606081526020015f81526020015f151581525090565b5080545f8255905f5260205f20908101906120019190612004565b50565b5b8082111561201b575f815f905550600101612005565b5090565b5f604051905090565b5f80fd5b5f80fd5b5f73ffffffffffffffffffffffffffffffffffffffff82169050919050565b5f61205982612030565b9050919050565b6120698161204f565b8114612073575f80fd5b50565b5f8135905061208481612060565b92915050565b5f80fd5b5f80fd5b5f601f19601f8301169050919050565b7f4e487b71000000000000000000000000000000000000000000000000000000005f52604160045260245ffd5b6120d882612092565b810181811067ffffffffffffffff821117156120f7576120f66120a2565b5b80604052505050565b5f61210961201f565b905061211582826120cf565b919050565b5f67ffffffffffffffff821115612134576121336120a2565b5b61213d82612092565b9050602081019050919050565b828183375f83830152505050565b5f61216a6121658461211a565b612100565b9050828152602081018484840111156121865761218561208e565b5b61219184828561214a565b509392505050565b5f82601f8301126121ad576121ac61208a565b5b81356121bd848260208601612158565b91505092915050565b5f805f80608085870312156121de576121dd612028565b5b5f6121eb87828801612076565b945050602085013567ffffffffffffffff81111561220c5761220b61202c565b5b61221887828801612199565b935050604085013567ffffffffffffffff8111156122395761223861202c565b5b61224587828801612199565b925050606085013567ffffffffffffffff8111156122665761226561202c565b5b61227287828801612199565b91505092959194509250565b5f819050919050565b6122908161227e565b82525050565b5f6020820190506122a95f830184612287565b92915050565b5f7fffffffff0000000000000000000000000000000000000000000000000000000082169050919050565b6122e3816122af565b81146122ed575f80fd5b50565b5f813590506122fe816122da565b92915050565b5f6020828403121561231957612318612028565b5b5f612326848285016122f0565b91505092915050565b5f8115159050919050565b6123438161232f565b82525050565b5f60208201905061235c5f83018461233a565b92915050565b5f6020828403121561237757612376612028565b5b5f61238484828501612076565b91505092915050565b6123968161204f565b82525050565b5f6020820190506123af5f83018461238d565b92915050565b6123be8161227e565b81146123c8575f80fd5b50565b5f813590506123d9816123b5565b92915050565b5f602082840312156123f4576123f3612028565b5b5f612401848285016123cb565b91505092915050565b5f81519050919050565b5f82825260208201905092915050565b5f5b83811015612441578082015181840152602081019050612426565b5f8484015250505050565b5f6124568261240a565b6124608185612414565b9350612470818560208601612424565b61247981612092565b840191505092915050565b5f819050919050565b61249681612484565b82525050565b5f60e0820190506124af5f83018a61238d565b6124bc602083018961238d565b81810360408301526124ce818861244c565b905081810360608301526124e2818761244c565b905081810360808301526124f6818661244c565b905061250560a083018561248d565b61251260c083018461233a565b98975050505050505050565b5f806040838503121561253457612533612028565b5b5f612541858286016123cb565b925050602061255285828601612076565b9150509250929050565b61256581612484565b811461256f575f80fd5b50565b5f813590506125808161255c565b92915050565b5f806040838503121561259c5761259b612028565b5b5f6125a985828601612076565b92505060206125ba85828601612572565b9150509250929050565b5f81519050919050565b5f82825260208201905092915050565b5f819050602082019050919050565b6125f68161204f565b82525050565b5f82825260208201905092915050565b5f6126168261240a565b61262081856125fc565b9350612630818560208601612424565b61263981612092565b840191505092915050565b61264d81612484565b82525050565b61265c8161232f565b82525050565b5f60e083015f8301516126775f8601826125ed565b50602083015161268a60208601826125ed565b50604083015184820360408601526126a2828261260c565b915050606083015184820360608601526126bc828261260c565b915050608083015184820360808601526126d6828261260c565b91505060a08301516126eb60a0860182612644565b5060c08301516126fe60c0860182612653565b508091505092915050565b5f6127148383612662565b905092915050565b5f602082019050919050565b5f612732826125c4565b61273c81856125ce565b93508360208202850161274e856125de565b805f5b85811015612789578484038952815161276a8582612709565b94506127758361271c565b925060208a01995050600181019050612751565b50829750879550505050505092915050565b5f6020820190508181035f8301526127b38184612728565b905092915050565b5f610100820190506127cf5f83018b61238d565b6127dc602083018a61238d565b81810360408301526127ee818961244c565b90508181036060830152612802818861244c565b90508181036080830152612816818761244c565b905061282560a083018661248d565b61283260c083018561233a565b61283f60e083018461233a565b9998505050505050505050565b5f8160601b9050919050565b5f6128628261284c565b9050919050565b5f61287382612858565b9050919050565b61288b6128868261204f565b612869565b82525050565b5f81905092915050565b5f6128a58261240a565b6128af8185612891565b93506128bf818560208601612424565b80840191505092915050565b5f819050919050565b6128e56128e082612484565b6128cb565b82525050565b5f6128f6828861287a565b601482019150612906828761287a565b601482019150612916828661289b565b9150612922828561289b565b915061292e82846128d4565b6020820191508190509695505050505050565b7f4e487b71000000000000000000000000000000000000000000000000000000005f52602260045260245ffd5b5f600282049050600182168061298557607f821691505b60208210810361299857612997612941565b5b50919050565b5f819050815f5260205f209050919050565b5f6020601f8301049050919050565b5f82821b905092915050565b5f600883026129fa7fffffffffffffffffffffffffffffffffffffffffffffffffffffffffffffffff826129bf565b612a0486836129bf565b95508019841693508086168417925050509392505050565b5f819050919050565b5f612a3f612a3a612a3584612484565b612a1c565b612484565b9050919050565b5f819050919050565b612a5883612a25565b612a6c612a6482612a46565b8484546129cb565b825550505050565b5f90565b612a80612a74565b612a8b818484612a4f565b505050565b5b81811015612aae57612aa35f82612a78565b600181019050612a91565b5050565b601f821115612af357612ac48161299e565b612acd846129b0565b81016020851015612adc578190505b612af0612ae8856129b0565b830182612a90565b50505b505050565b5f82821c905092915050565b5f612b135f1984600802612af8565b1980831691505092915050565b5f612b2b8383612b04565b9150826002028217905092915050565b612b448261240a565b67ffffffffffffffff811115612b5d57612b5c6120a2565b5b612b67825461296e565b612b72828285612ab2565b5f60209050601f831160018114612ba3575f8415612b91578287015190505b612b9b8582612b20565b865550612c02565b601f198416612bb18661299e565b5f5b82811015612bd857848901518255600182019150602085019450602081019050612bb3565b86831015612bf55784890151612bf1601f891682612b04565b8355505b6001600288020188555050505b505050505050565b5f6040820190508181035f830152612c22818561244c565b90508181036020830152612c36818461244c565b90509392505050565b7f4e6f742074686520646f63756d656e74206f776e6572000000000000000000005f82015250565b5f612c73601683612414565b9150612c7e82612c3f565b602082019050919050565b5f6020820190508181035f830152612ca081612c67565b9050919050565b7f4e487b71000000000000000000000000000000000000000000000000000000005f52603260045260245ffd5b7f4e487b71000000000000000000000000000000000000000000000000000000005f52601160045260245ffd5b5f612d0b82612484565b91507fffffffffffffffffffffffffffffffffffffffffffffffffffffffffffffffff8203612d3d57612d3c612cd4565b5b600182019050919050565b7f4e6f7420746865206973737565720000000000000000000000000000000000005f82015250565b5f612d7c600e83612414565b9150612d8782612d48565b602082019050919050565b5f6020820190508181035f830152612da981612d70565b9050919050565b7f416c7265616479207265766f6b656400000000000000000000000000000000005f82015250565b5f612de4600f83612414565b9150612def82612db0565b602082019050919050565b5f6020820190508181035f830152612e1181612dd8565b9050919050565b7f4e6f742074686520617574686f72697a6564206e6f6d696e65650000000000005f82015250565b5f612e4c601a83612414565b9150612e5782612e18565b602082019050919050565b5f6020820190508181035f830152612e7981612e40565b9050919050565b5f604082019050612e935f83018561238d565b612ea06020830184612287565b939250505056fea2646970667358221220b5958c84b28591a3b12a3d92b4adda27ad834eade815b3fed2066dfb2228c15e64736f6c63430008140033",
  "linkReferences": {},
  "deployedLinkReferences": {},
  "immutableReferences": {},
  "inputSourceName": "project/contracts/TrueStamp.sol",
  "buildInfoId": "solc-0_8_20-8aeadb6321193e7ff2d6cb5f1345c4dcd173a32f"
}